{
  "contractName": "MyNFT",
  "abi": [
    {
      "inputs": [],
      "stateMutability": "nonpayable",
      "type": "constructor"
    },
    {
      "anonymous": false,
      "inputs": [
        {
          "indexed": true,
          "internalType": "address",
          "name": "owner",
          "type": "address"
        },
        {
          "indexed": true,
          "internalType": "address",
          "name": "approved",
          "type": "address"
        },
        {
          "indexed": true,
          "internalType": "uint256",
          "name": "tokenId",
          "type": "uint256"
        }
      ],
      "name": "Approval",
      "type": "event"
    },
    {
      "anonymous": false,
      "inputs": [
        {
          "indexed": true,
          "internalType": "address",
          "name": "owner",
          "type": "address"
        },
        {
          "indexed": true,
          "internalType": "address",
          "name": "operator",
          "type": "address"
        },
        {
          "indexed": false,
          "internalType": "bool",
          "name": "approved",
          "type": "bool"
        }
      ],
      "name": "ApprovalForAll",
      "type": "event"
    },
    {
      "anonymous": false,
      "inputs": [
        {
          "indexed": true,
          "internalType": "address",
          "name": "previousOwner",
          "type": "address"
        },
        {
          "indexed": true,
          "internalType": "address",
          "name": "newOwner",
          "type": "address"
        }
      ],
      "name": "OwnershipTransferred",
      "type": "event"
    },
    {
      "anonymous": false,
      "inputs": [
        {
          "indexed": true,
          "internalType": "address",
          "name": "from",
          "type": "address"
        },
        {
          "indexed": true,
          "internalType": "address",
          "name": "to",
          "type": "address"
        },
        {
          "indexed": true,
          "internalType": "uint256",
          "name": "tokenId",
          "type": "uint256"
        }
      ],
      "name": "Transfer",
      "type": "event"
    },
    {
      "inputs": [
        {
          "internalType": "address",
          "name": "to",
          "type": "address"
        },
        {
          "internalType": "uint256",
          "name": "tokenId",
          "type": "uint256"
        }
      ],
      "name": "approve",
      "outputs": [],
      "stateMutability": "nonpayable",
      "type": "function"
    },
    {
      "inputs": [
        {
          "internalType": "address",
          "name": "owner",
          "type": "address"
        }
      ],
      "name": "balanceOf",
      "outputs": [
        {
          "internalType": "uint256",
          "name": "",
          "type": "uint256"
        }
      ],
      "stateMutability": "view",
      "type": "function"
    },
    {
      "inputs": [
        {
          "internalType": "uint256",
          "name": "tokenId",
          "type": "uint256"
        }
      ],
      "name": "getApproved",
      "outputs": [
        {
          "internalType": "address",
          "name": "",
          "type": "address"
        }
      ],
      "stateMutability": "view",
      "type": "function"
    },
    {
      "inputs": [
        {
          "internalType": "address",
          "name": "owner",
          "type": "address"
        },
        {
          "internalType": "address",
          "name": "operator",
          "type": "address"
        }
      ],
      "name": "isApprovedForAll",
      "outputs": [
        {
          "internalType": "bool",
          "name": "",
          "type": "bool"
        }
      ],
      "stateMutability": "view",
      "type": "function"
    },
    {
      "inputs": [],
      "name": "name",
      "outputs": [
        {
          "internalType": "string",
          "name": "",
          "type": "string"
        }
      ],
      "stateMutability": "view",
      "type": "function"
    },
    {
      "inputs": [],
      "name": "owner",
      "outputs": [
        {
          "internalType": "address",
          "name": "",
          "type": "address"
        }
      ],
      "stateMutability": "view",
      "type": "function"
    },
    {
      "inputs": [
        {
          "internalType": "uint256",
          "name": "tokenId",
          "type": "uint256"
        }
      ],
      "name": "ownerOf",
      "outputs": [
        {
          "internalType": "address",
          "name": "",
          "type": "address"
        }
      ],
      "stateMutability": "view",
      "type": "function"
    },
    {
      "inputs": [],
      "name": "renounceOwnership",
      "outputs": [],
      "stateMutability": "nonpayable",
      "type": "function"
    },
    {
      "inputs": [
        {
          "internalType": "address",
          "name": "from",
          "type": "address"
        },
        {
          "internalType": "address",
          "name": "to",
          "type": "address"
        },
        {
          "internalType": "uint256",
          "name": "tokenId",
          "type": "uint256"
        }
      ],
      "name": "safeTransferFrom",
      "outputs": [],
      "stateMutability": "nonpayable",
      "type": "function"
    },
    {
      "inputs": [
        {
          "internalType": "address",
          "name": "from",
          "type": "address"
        },
        {
          "internalType": "address",
          "name": "to",
          "type": "address"
        },
        {
          "internalType": "uint256",
          "name": "tokenId",
          "type": "uint256"
        },
        {
          "internalType": "bytes",
          "name": "data",
          "type": "bytes"
        }
      ],
      "name": "safeTransferFrom",
      "outputs": [],
      "stateMutability": "nonpayable",
      "type": "function"
    },
    {
      "inputs": [
        {
          "internalType": "address",
          "name": "operator",
          "type": "address"
        },
        {
          "internalType": "bool",
          "name": "approved",
          "type": "bool"
        }
      ],
      "name": "setApprovalForAll",
      "outputs": [],
      "stateMutability": "nonpayable",
      "type": "function"
    },
    {
      "inputs": [
        {
          "internalType": "bytes4",
          "name": "interfaceId",
          "type": "bytes4"
        }
      ],
      "name": "supportsInterface",
      "outputs": [
        {
          "internalType": "bool",
          "name": "",
          "type": "bool"
        }
      ],
      "stateMutability": "view",
      "type": "function"
    },
    {
      "inputs": [],
      "name": "symbol",
      "outputs": [
        {
          "internalType": "string",
          "name": "",
          "type": "string"
        }
      ],
      "stateMutability": "view",
      "type": "function"
    },
    {
      "inputs": [],
      "name": "tokenCounter",
      "outputs": [
        {
          "internalType": "uint256",
          "name": "",
          "type": "uint256"
        }
      ],
      "stateMutability": "view",
      "type": "function"
    },
    {
      "inputs": [
        {
          "internalType": "uint256",
          "name": "",
          "type": "uint256"
        }
      ],
      "name": "tokenStaked",
      "outputs": [
        {
          "internalType": "bool",
          "name": "",
          "type": "bool"
        }
      ],
      "stateMutability": "view",
      "type": "function"
    },
    {
      "inputs": [
        {
          "internalType": "uint256",
          "name": "tokenId",
          "type": "uint256"
        }
      ],
      "name": "tokenURI",
      "outputs": [
        {
          "internalType": "string",
          "name": "",
          "type": "string"
        }
      ],
      "stateMutability": "view",
      "type": "function"
    },
    {
      "inputs": [
        {
          "internalType": "address",
          "name": "from",
          "type": "address"
        },
        {
          "internalType": "address",
          "name": "to",
          "type": "address"
        },
        {
          "internalType": "uint256",
          "name": "tokenId",
          "type": "uint256"
        }
      ],
      "name": "transferFrom",
      "outputs": [],
      "stateMutability": "nonpayable",
      "type": "function"
    },
    {
      "inputs": [
        {
          "internalType": "address",
          "name": "newOwner",
          "type": "address"
        }
      ],
      "name": "transferOwnership",
      "outputs": [],
      "stateMutability": "nonpayable",
      "type": "function"
    },
    {
      "inputs": [],
      "name": "mintNFT",
      "outputs": [
        {
          "internalType": "uint256",
          "name": "",
          "type": "uint256"
        }
      ],
      "stateMutability": "nonpayable",
      "type": "function"
    },
    {
      "inputs": [
        {
          "internalType": "uint256",
          "name": "_tokenId",
          "type": "uint256"
        }
      ],
      "name": "stakeToken",
      "outputs": [],
      "stateMutability": "nonpayable",
      "type": "function"
    },
    {
      "inputs": [
        {
          "internalType": "uint256",
          "name": "_tokenId",
          "type": "uint256"
        }
      ],
      "name": "unstakeToken",
      "outputs": [],
      "stateMutability": "nonpayable",
      "type": "function"
    }
  ],
  "bytecode": "0x60806040523480156200001157600080fd5b506040518060400160405280600781526020017f4e465479756461000000000000000000000000000000000000000000000000008152506040518060400160405280600781526020017f4e4654797564610000000000000000000000000000000000000000000000000081525081600090816200008f91906200041a565b508060019081620000a191906200041a565b505050620000c4620000b8620000d260201b60201c565b620000da60201b60201c565b600060078190555062000501565b600033905090565b6000600660009054906101000a900473ffffffffffffffffffffffffffffffffffffffff16905081600660006101000a81548173ffffffffffffffffffffffffffffffffffffffff021916908373ffffffffffffffffffffffffffffffffffffffff1602179055508173ffffffffffffffffffffffffffffffffffffffff168173ffffffffffffffffffffffffffffffffffffffff167f8be0079c531659141344cd1fd0a4f28419497f9722a3daafe3b4186f6b6457e060405160405180910390a35050565b600081519050919050565b7f4e487b7100000000000000000000000000000000000000000000000000000000600052604160045260246000fd5b7f4e487b7100000000000000000000000000000000000000000000000000000000600052602260045260246000fd5b600060028204905060018216806200022257607f821691505b602082108103620002385762000237620001da565b5b50919050565b60008190508160005260206000209050919050565b60006020601f8301049050919050565b600082821b905092915050565b600060088302620002a27fffffffffffffffffffffffffffffffffffffffffffffffffffffffffffffffff8262000263565b620002ae868362000263565b95508019841693508086168417925050509392505050565b6000819050919050565b6000819050919050565b6000620002fb620002f5620002ef84620002c6565b620002d0565b620002c6565b9050919050565b6000819050919050565b6200031783620002da565b6200032f620003268262000302565b84845462000270565b825550505050565b600090565b6200034662000337565b620003538184846200030c565b505050565b5b818110156200037b576200036f6000826200033c565b60018101905062000359565b5050565b601f821115620003ca5762000394816200023e565b6200039f8462000253565b81016020851015620003af578190505b620003c7620003be8562000253565b83018262000358565b50505b505050565b600082821c905092915050565b6000620003ef60001984600802620003cf565b1980831691505092915050565b60006200040a8383620003dc565b9150826002028217905092915050565b6200042582620001a0565b67ffffffffffffffff811115620004415762000440620001ab565b5b6200044d825462000209565b6200045a8282856200037f565b600060209050601f8311600181146200049257600084156200047d578287015190505b620004898582620003fc565b865550620004f9565b601f198416620004a2866200023e565b60005b82811015620004cc57848901518255600182019150602085019450602081019050620004a5565b86831015620004ec5784890151620004e8601f891682620003dc565b8355505b6001600288020188555050505b505050505050565b612e2980620005116000396000f3fe608060405234801561001057600080fd5b50600436106101375760003560e01c806370a08231116100b8578063b88d4fde1161007c578063b88d4fde1461033a578063c87b56dd14610356578063cda6b84714610386578063d082e381146103a2578063e985e9c5146103c0578063f2fde38b146103f057610137565b806370a08231146102a8578063715018a6146102d85780638da5cb5b146102e257806395d89b4114610300578063a22cb4651461031e57610137565b806323b872dd116100ff57806323b872dd146101f45780632cfb66881461021057806342842e0e1461022c57806363315760146102485780636352211e1461027857610137565b806301ffc9a71461013c57806306fdde031461016c578063081812fc1461018a578063095ea7b3146101ba57806314f710fe146101d6575b600080fd5b61015660048036038101906101519190611dda565b61040c565b6040516101639190611e22565b60405180910390f35b6101746104ee565b6040516101819190611ecd565b60405180910390f35b6101a4600480360381019061019f9190611f25565b610580565b6040516101b19190611f93565b60405180910390f35b6101d460048036038101906101cf9190611fda565b6105c6565b005b6101de6106dd565b6040516101eb9190612029565b60405180910390f35b61020e60048036038101906102099190612044565b610717565b005b61022a60048036038101906102259190611f25565b610777565b005b61024660048036038101906102419190612044565b6108c4565b005b610262600480360381019061025d9190611f25565b6108e4565b60405161026f9190611e22565b60405180910390f35b610292600480360381019061028d9190611f25565b610904565b60405161029f9190611f93565b60405180910390f35b6102c260048036038101906102bd9190612097565b61098a565b6040516102cf9190612029565b60405180910390f35b6102e0610a41565b005b6102ea610a55565b6040516102f79190611f93565b60405180910390f35b610308610a7f565b6040516103159190611ecd565b60405180910390f35b610338600480360381019061033391906120f0565b610b11565b005b610354600480360381019061034f9190612265565b610b27565b005b610370600480360381019061036b9190611f25565b610b89565b60405161037d9190611ecd565b60405180910390f35b6103a0600480360381019061039b9190611f25565b610bf1565b005b6103aa610d3f565b6040516103b79190612029565b60405180910390f35b6103da60048036038101906103d591906122e8565b610d45565b6040516103e79190611e22565b60405180910390f35b61040a60048036038101906104059190612097565b610dd9565b005b60007f80ac58cd000000000000000000000000000000000000000000000000000000007bffffffffffffffffffffffffffffffffffffffffffffffffffffffff1916827bffffffffffffffffffffffffffffffffffffffffffffffffffffffff191614806104d757507f5b5e139f000000000000000000000000000000000000000000000000000000007bffffffffffffffffffffffffffffffffffffffffffffffffffffffff1916827bffffffffffffffffffffffffffffffffffffffffffffffffffffffff1916145b806104e757506104e682610e5c565b5b9050919050565b6060600080546104fd90612357565b80601f016020809104026020016040519081016040528092919081815260200182805461052990612357565b80156105765780601f1061054b57610100808354040283529160200191610576565b820191906000526020600020905b81548152906001019060200180831161055957829003601f168201915b5050505050905090565b600061058b82610ec6565b6004600083815260200190815260200160002060009054906101000a900473ffffffffffffffffffffffffffffffffffffffff169050919050565b60006105d182610904565b90508073ffffffffffffffffffffffffffffffffffffffff168373ffffffffffffffffffffffffffffffffffffffff1603610641576040517f08c379a0000000000000000000000000000000000000000000000000000000008152600401610638906123fa565b60405180910390fd5b8073ffffffffffffffffffffffffffffffffffffffff16610660610f11565b73ffffffffffffffffffffffffffffffffffffffff16148061068f575061068e81610689610f11565b610d45565b5b6106ce576040517f08c379a00000000000000000000000000000000000000000000000000000000081526004016106c59061248c565b60405180910390fd5b6106d88383610f19565b505050565b60006106e7610fd2565b600060075490506106f83382611050565b6007600081548092919061070b906124db565b91905055508091505090565b610728610722610f11565b8261106e565b610767576040517f08c379a000000000000000000000000000000000000000000000000000000000815260040161075e90612595565b60405180910390fd5b610772838383611103565b505050565b610780816113fc565b6107bf576040517f08c379a00000000000000000000000000000000000000000000000000000000081526004016107b690612601565b60405180910390fd5b3373ffffffffffffffffffffffffffffffffffffffff166107df82610904565b73ffffffffffffffffffffffffffffffffffffffff1614610835576040517f08c379a000000000000000000000000000000000000000000000000000000000815260040161082c90612693565b60405180910390fd5b6008600082815260200190815260200160002060009054906101000a900460ff16610895576040517f08c379a000000000000000000000000000000000000000000000000000000000815260040161088c906126ff565b60405180910390fd5b60006008600083815260200190815260200160002060006101000a81548160ff02191690831515021790555050565b6108df83838360405180602001604052806000815250610b27565b505050565b60086020528060005260406000206000915054906101000a900460ff1681565b6000806109108361143d565b9050600073ffffffffffffffffffffffffffffffffffffffff168173ffffffffffffffffffffffffffffffffffffffff1603610981576040517f08c379a00000000000000000000000000000000000000000000000000000000081526004016109789061276b565b60405180910390fd5b80915050919050565b60008073ffffffffffffffffffffffffffffffffffffffff168273ffffffffffffffffffffffffffffffffffffffff16036109fa576040517f08c379a00000000000000000000000000000000000000000000000000000000081526004016109f1906127fd565b60405180910390fd5b600360008373ffffffffffffffffffffffffffffffffffffffff1673ffffffffffffffffffffffffffffffffffffffff168152602001908152602001600020549050919050565b610a49610fd2565b610a53600061147a565b565b6000600660009054906101000a900473ffffffffffffffffffffffffffffffffffffffff16905090565b606060018054610a8e90612357565b80601f0160208091040260200160405190810160405280929190818152602001828054610aba90612357565b8015610b075780601f10610adc57610100808354040283529160200191610b07565b820191906000526020600020905b815481529060010190602001808311610aea57829003601f168201915b5050505050905090565b610b23610b1c610f11565b8383611540565b5050565b610b38610b32610f11565b8361106e565b610b77576040517f08c379a0000000000000000000000000000000000000000000000000000000008152600401610b6e90612595565b60405180910390fd5b610b83848484846116ac565b50505050565b6060610b9482610ec6565b6000610b9e611708565b90506000815111610bbe5760405180602001604052806000815250610be9565b80610bc88461171f565b604051602001610bd9929190612859565b6040516020818303038152906040525b915050919050565b610bfa816113fc565b610c39576040517f08c379a0000000000000000000000000000000000000000000000000000000008152600401610c3090612601565b60405180910390fd5b3373ffffffffffffffffffffffffffffffffffffffff16610c5982610904565b73ffffffffffffffffffffffffffffffffffffffff1614610caf576040517f08c379a0000000000000000000000000000000000000000000000000000000008152600401610ca690612693565b60405180910390fd5b6008600082815260200190815260200160002060009054906101000a900460ff1615610d10576040517f08c379a0000000000000000000000000000000000000000000000000000000008152600401610d07906128c9565b60405180910390fd5b60016008600083815260200190815260200160002060006101000a81548160ff02191690831515021790555050565b60075481565b6000600560008473ffffffffffffffffffffffffffffffffffffffff1673ffffffffffffffffffffffffffffffffffffffff16815260200190815260200160002060008373ffffffffffffffffffffffffffffffffffffffff1673ffffffffffffffffffffffffffffffffffffffff16815260200190815260200160002060009054906101000a900460ff16905092915050565b610de1610fd2565b600073ffffffffffffffffffffffffffffffffffffffff168173ffffffffffffffffffffffffffffffffffffffff1603610e50576040517f08c379a0000000000000000000000000000000000000000000000000000000008152600401610e479061295b565b60405180910390fd5b610e598161147a565b50565b60007f01ffc9a7000000000000000000000000000000000000000000000000000000007bffffffffffffffffffffffffffffffffffffffffffffffffffffffff1916827bffffffffffffffffffffffffffffffffffffffffffffffffffffffff1916149050919050565b610ecf816113fc565b610f0e576040517f08c379a0000000000000000000000000000000000000000000000000000000008152600401610f059061276b565b60405180910390fd5b50565b600033905090565b816004600083815260200190815260200160002060006101000a81548173ffffffffffffffffffffffffffffffffffffffff021916908373ffffffffffffffffffffffffffffffffffffffff160217905550808273ffffffffffffffffffffffffffffffffffffffff16610f8c83610904565b73ffffffffffffffffffffffffffffffffffffffff167f8c5be1e5ebec7d5bd14f71427d1e84f3dd0314c0f7b2291e5b200ac8c7c3b92560405160405180910390a45050565b610fda610f11565b73ffffffffffffffffffffffffffffffffffffffff16610ff8610a55565b73ffffffffffffffffffffffffffffffffffffffff161461104e576040517f08c379a0000000000000000000000000000000000000000000000000000000008152600401611045906129c7565b60405180910390fd5b565b61106a8282604051806020016040528060008152506117ed565b5050565b60008061107a83610904565b90508073ffffffffffffffffffffffffffffffffffffffff168473ffffffffffffffffffffffffffffffffffffffff1614806110bc57506110bb8185610d45565b5b806110fa57508373ffffffffffffffffffffffffffffffffffffffff166110e284610580565b73ffffffffffffffffffffffffffffffffffffffff16145b91505092915050565b8273ffffffffffffffffffffffffffffffffffffffff1661112382610904565b73ffffffffffffffffffffffffffffffffffffffff1614611179576040517f08c379a000000000000000000000000000000000000000000000000000000000815260040161117090612a59565b60405180910390fd5b600073ffffffffffffffffffffffffffffffffffffffff168273ffffffffffffffffffffffffffffffffffffffff16036111e8576040517f08c379a00000000000000000000000000000000000000000000000000000000081526004016111df90612aeb565b60405180910390fd5b6111f58383836001611848565b8273ffffffffffffffffffffffffffffffffffffffff1661121582610904565b73ffffffffffffffffffffffffffffffffffffffff161461126b576040517f08c379a000000000000000000000000000000000000000000000000000000000815260040161126290612a59565b60405180910390fd5b6004600082815260200190815260200160002060006101000a81549073ffffffffffffffffffffffffffffffffffffffff02191690556001600360008573ffffffffffffffffffffffffffffffffffffffff1673ffffffffffffffffffffffffffffffffffffffff168152602001908152602001600020600082825403925050819055506001600360008473ffffffffffffffffffffffffffffffffffffffff1673ffffffffffffffffffffffffffffffffffffffff16815260200190815260200160002060008282540192505081905550816002600083815260200190815260200160002060006101000a81548173ffffffffffffffffffffffffffffffffffffffff021916908373ffffffffffffffffffffffffffffffffffffffff160217905550808273ffffffffffffffffffffffffffffffffffffffff168473ffffffffffffffffffffffffffffffffffffffff167fddf252ad1be2c89b69c2b068fc378daa952ba7f163c4a11628f55a4df523b3ef60405160405180910390a46113f7838383600161184e565b505050565b60008073ffffffffffffffffffffffffffffffffffffffff1661141e8361143d565b73ffffffffffffffffffffffffffffffffffffffff1614159050919050565b60006002600083815260200190815260200160002060009054906101000a900473ffffffffffffffffffffffffffffffffffffffff169050919050565b6000600660009054906101000a900473ffffffffffffffffffffffffffffffffffffffff16905081600660006101000a81548173ffffffffffffffffffffffffffffffffffffffff021916908373ffffffffffffffffffffffffffffffffffffffff1602179055508173ffffffffffffffffffffffffffffffffffffffff168173ffffffffffffffffffffffffffffffffffffffff167f8be0079c531659141344cd1fd0a4f28419497f9722a3daafe3b4186f6b6457e060405160405180910390a35050565b8173ffffffffffffffffffffffffffffffffffffffff168373ffffffffffffffffffffffffffffffffffffffff16036115ae576040517f08c379a00000000000000000000000000000000000000000000000000000000081526004016115a590612b57565b60405180910390fd5b80600560008573ffffffffffffffffffffffffffffffffffffffff1673ffffffffffffffffffffffffffffffffffffffff16815260200190815260200160002060008473ffffffffffffffffffffffffffffffffffffffff1673ffffffffffffffffffffffffffffffffffffffff16815260200190815260200160002060006101000a81548160ff0219169083151502179055508173ffffffffffffffffffffffffffffffffffffffff168373ffffffffffffffffffffffffffffffffffffffff167f17307eab39ab6107e8899845ad3d59bd9653f200f220920489ca2b5937696c318360405161169f9190611e22565b60405180910390a3505050565b6116b7848484611103565b6116c384848484611854565b611702576040517f08c379a00000000000000000000000000000000000000000000000000000000081526004016116f990612be9565b60405180910390fd5b50505050565b606060405180602001604052806000815250905090565b60606000600161172e846119db565b01905060008167ffffffffffffffff81111561174d5761174c61213a565b5b6040519080825280601f01601f19166020018201604052801561177f5781602001600182028036833780820191505090505b509050600082602001820190505b6001156117e2578080600190039150507f3031323334353637383961626364656600000000000000000000000000000000600a86061a8153600a85816117d6576117d5612c09565b5b0494506000850361178d575b819350505050919050565b6117f78383611b2e565b6118046000848484611854565b611843576040517f08c379a000000000000000000000000000000000000000000000000000000000815260040161183a90612be9565b60405180910390fd5b505050565b50505050565b50505050565b60006118758473ffffffffffffffffffffffffffffffffffffffff16611d4b565b156119ce578373ffffffffffffffffffffffffffffffffffffffff1663150b7a0261189e610f11565b8786866040518563ffffffff1660e01b81526004016118c09493929190612c8d565b6020604051808303816000875af19250505080156118fc57506040513d601f19601f820116820180604052508101906118f99190612cee565b60015b61197e573d806000811461192c576040519150601f19603f3d011682016040523d82523d6000602084013e611931565b606091505b506000815103611976576040517f08c379a000000000000000000000000000000000000000000000000000000000815260040161196d90612be9565b60405180910390fd5b805181602001fd5b63150b7a0260e01b7bffffffffffffffffffffffffffffffffffffffffffffffffffffffff1916817bffffffffffffffffffffffffffffffffffffffffffffffffffffffff1916149150506119d3565b600190505b949350505050565b600080600090507a184f03e93ff9f4daa797ed6e38ed64bf6a1f0100000000000000008310611a39577a184f03e93ff9f4daa797ed6e38ed64bf6a1f0100000000000000008381611a2f57611a2e612c09565b5b0492506040810190505b6d04ee2d6d415b85acef81000000008310611a76576d04ee2d6d415b85acef81000000008381611a6c57611a6b612c09565b5b0492506020810190505b662386f26fc100008310611aa557662386f26fc100008381611a9b57611a9a612c09565b5b0492506010810190505b6305f5e1008310611ace576305f5e1008381611ac457611ac3612c09565b5b0492506008810190505b6127108310611af3576127108381611ae957611ae8612c09565b5b0492506004810190505b60648310611b165760648381611b0c57611b0b612c09565b5b0492506002810190505b600a8310611b25576001810190505b80915050919050565b600073ffffffffffffffffffffffffffffffffffffffff168273ffffffffffffffffffffffffffffffffffffffff1603611b9d576040517f08c379a0000000000000000000000000000000000000000000000000000000008152600401611b9490612d67565b60405180910390fd5b611ba6816113fc565b15611be6576040517f08c379a0000000000000000000000000000000000000000000000000000000008152600401611bdd90612dd3565b60405180910390fd5b611bf4600083836001611848565b611bfd816113fc565b15611c3d576040517f08c379a0000000000000000000000000000000000000000000000000000000008152600401611c3490612dd3565b60405180910390fd5b6001600360008473ffffffffffffffffffffffffffffffffffffffff1673ffffffffffffffffffffffffffffffffffffffff16815260200190815260200160002060008282540192505081905550816002600083815260200190815260200160002060006101000a81548173ffffffffffffffffffffffffffffffffffffffff021916908373ffffffffffffffffffffffffffffffffffffffff160217905550808273ffffffffffffffffffffffffffffffffffffffff16600073ffffffffffffffffffffffffffffffffffffffff167fddf252ad1be2c89b69c2b068fc378daa952ba7f163c4a11628f55a4df523b3ef60405160405180910390a4611d4760008383600161184e565b5050565b6000808273ffffffffffffffffffffffffffffffffffffffff163b119050919050565b6000604051905090565b600080fd5b600080fd5b60007fffffffff0000000000000000000000000000000000000000000000000000000082169050919050565b611db781611d82565b8114611dc257600080fd5b50565b600081359050611dd481611dae565b92915050565b600060208284031215611df057611def611d78565b5b6000611dfe84828501611dc5565b91505092915050565b60008115159050919050565b611e1c81611e07565b82525050565b6000602082019050611e376000830184611e13565b92915050565b600081519050919050565b600082825260208201905092915050565b60005b83811015611e77578082015181840152602081019050611e5c565b60008484015250505050565b6000601f19601f8301169050919050565b6000611e9f82611e3d565b611ea98185611e48565b9350611eb9818560208601611e59565b611ec281611e83565b840191505092915050565b60006020820190508181036000830152611ee78184611e94565b905092915050565b6000819050919050565b611f0281611eef565b8114611f0d57600080fd5b50565b600081359050611f1f81611ef9565b92915050565b600060208284031215611f3b57611f3a611d78565b5b6000611f4984828501611f10565b91505092915050565b600073ffffffffffffffffffffffffffffffffffffffff82169050919050565b6000611f7d82611f52565b9050919050565b611f8d81611f72565b82525050565b6000602082019050611fa86000830184611f84565b92915050565b611fb781611f72565b8114611fc257600080fd5b50565b600081359050611fd481611fae565b92915050565b60008060408385031215611ff157611ff0611d78565b5b6000611fff85828601611fc5565b925050602061201085828601611f10565b9150509250929050565b61202381611eef565b82525050565b600060208201905061203e600083018461201a565b92915050565b60008060006060848603121561205d5761205c611d78565b5b600061206b86828701611fc5565b935050602061207c86828701611fc5565b925050604061208d86828701611f10565b9150509250925092565b6000602082840312156120ad576120ac611d78565b5b60006120bb84828501611fc5565b91505092915050565b6120cd81611e07565b81146120d857600080fd5b50565b6000813590506120ea816120c4565b92915050565b6000806040838503121561210757612106611d78565b5b600061211585828601611fc5565b9250506020612126858286016120db565b9150509250929050565b600080fd5b600080fd5b7f4e487b7100000000000000000000000000000000000000000000000000000000600052604160045260246000fd5b61217282611e83565b810181811067ffffffffffffffff821117156121915761219061213a565b5b80604052505050565b60006121a4611d6e565b90506121b08282612169565b919050565b600067ffffffffffffffff8211156121d0576121cf61213a565b5b6121d982611e83565b9050602081019050919050565b82818337600083830152505050565b6000612208612203846121b5565b61219a565b90508281526020810184848401111561222457612223612135565b5b61222f8482856121e6565b509392505050565b600082601f83011261224c5761224b612130565b5b813561225c8482602086016121f5565b91505092915050565b6000806000806080858703121561227f5761227e611d78565b5b600061228d87828801611fc5565b945050602061229e87828801611fc5565b93505060406122af87828801611f10565b925050606085013567ffffffffffffffff8111156122d0576122cf611d7d565b5b6122dc87828801612237565b91505092959194509250565b600080604083850312156122ff576122fe611d78565b5b600061230d85828601611fc5565b925050602061231e85828601611fc5565b9150509250929050565b7f4e487b7100000000000000000000000000000000000000000000000000000000600052602260045260246000fd5b6000600282049050600182168061236f57607f821691505b60208210810361238257612381612328565b5b50919050565b7f4552433732313a20617070726f76616c20746f2063757272656e74206f776e6560008201527f7200000000000000000000000000000000000000000000000000000000000000602082015250565b60006123e4602183611e48565b91506123ef82612388565b604082019050919050565b60006020820190508181036000830152612413816123d7565b9050919050565b7f4552433732313a20617070726f76652063616c6c6572206973206e6f7420746f60008201527f6b656e206f776e6572206f7220617070726f76656420666f7220616c6c000000602082015250565b6000612476603d83611e48565b91506124818261241a565b604082019050919050565b600060208201905081810360008301526124a581612469565b9050919050565b7f4e487b7100000000000000000000000000000000000000000000000000000000600052601160045260246000fd5b60006124e682611eef565b91507fffffffffffffffffffffffffffffffffffffffffffffffffffffffffffffffff8203612518576125176124ac565b5b600182019050919050565b7f4552433732313a2063616c6c6572206973206e6f7420746f6b656e206f776e6560008201527f72206f7220617070726f76656400000000000000000000000000000000000000602082015250565b600061257f602d83611e48565b915061258a82612523565b604082019050919050565b600060208201905081810360008301526125ae81612572565b9050919050565b7f546f6b656e20646f6573206e6f74206578697374000000000000000000000000600082015250565b60006125eb601483611e48565b91506125f6826125b5565b602082019050919050565b6000602082019050818103600083015261261a816125de565b9050919050565b7f596f7520617265206e6f7420746865206f776e6572206f662074686520746f6b60008201527f656e000000000000000000000000000000000000000000000000000000000000602082015250565b600061267d602283611e48565b915061268882612621565b604082019050919050565b600060208201905081810360008301526126ac81612670565b9050919050565b7f546f6b656e206973206e6f74207374616b656400000000000000000000000000600082015250565b60006126e9601383611e48565b91506126f4826126b3565b602082019050919050565b60006020820190508181036000830152612718816126dc565b9050919050565b7f4552433732313a20696e76616c696420746f6b656e2049440000000000000000600082015250565b6000612755601883611e48565b91506127608261271f565b602082019050919050565b6000602082019050818103600083015261278481612748565b9050919050565b7f4552433732313a2061646472657373207a65726f206973206e6f74206120766160008201527f6c6964206f776e65720000000000000000000000000000000000000000000000602082015250565b60006127e7602983611e48565b91506127f28261278b565b604082019050919050565b60006020820190508181036000830152612816816127da565b9050919050565b600081905092915050565b600061283382611e3d565b61283d818561281d565b935061284d818560208601611e59565b80840191505092915050565b60006128658285612828565b91506128718284612828565b91508190509392505050565b7f546f6b656e20697320616c7265616479207374616b6564000000000000000000600082015250565b60006128b3601783611e48565b91506128be8261287d565b602082019050919050565b600060208201905081810360008301526128e2816128a6565b9050919050565b7f4f776e61626c653a206e6577206f776e657220697320746865207a65726f206160008201527f6464726573730000000000000000000000000000000000000000000000000000602082015250565b6000612945602683611e48565b9150612950826128e9565b604082019050919050565b6000602082019050818103600083015261297481612938565b9050919050565b7f4f776e61626c653a2063616c6c6572206973206e6f7420746865206f776e6572600082015250565b60006129b1602083611e48565b91506129bc8261297b565b602082019050919050565b600060208201905081810360008301526129e0816129a4565b9050919050565b7f4552433732313a207472616e736665722066726f6d20696e636f72726563742060008201527f6f776e6572000000000000000000000000000000000000000000000000000000602082015250565b6000612a43602583611e48565b9150612a4e826129e7565b604082019050919050565b60006020820190508181036000830152612a7281612a36565b9050919050565b7f4552433732313a207472616e7366657220746f20746865207a65726f2061646460008201527f7265737300000000000000000000000000000000000000000000000000000000602082015250565b6000612ad5602483611e48565b9150612ae082612a79565b604082019050919050565b60006020820190508181036000830152612b0481612ac8565b9050919050565b7f4552433732313a20617070726f766520746f2063616c6c657200000000000000600082015250565b6000612b41601983611e48565b9150612b4c82612b0b565b602082019050919050565b60006020820190508181036000830152612b7081612b34565b9050919050565b7f4552433732313a207472616e7366657220746f206e6f6e20455243373231526560008201527f63656976657220696d706c656d656e7465720000000000000000000000000000602082015250565b6000612bd3603283611e48565b9150612bde82612b77565b604082019050919050565b60006020820190508181036000830152612c0281612bc6565b9050919050565b7f4e487b7100000000000000000000000000000000000000000000000000000000600052601260045260246000fd5b600081519050919050565b600082825260208201905092915050565b6000612c5f82612c38565b612c698185612c43565b9350612c79818560208601611e59565b612c8281611e83565b840191505092915050565b6000608082019050612ca26000830187611f84565b612caf6020830186611f84565b612cbc604083018561201a565b8181036060830152612cce8184612c54565b905095945050505050565b600081519050612ce881611dae565b92915050565b600060208284031215612d0457612d03611d78565b5b6000612d1284828501612cd9565b91505092915050565b7f4552433732313a206d696e7420746f20746865207a65726f2061646472657373600082015250565b6000612d51602083611e48565b9150612d5c82612d1b565b602082019050919050565b60006020820190508181036000830152612d8081612d44565b9050919050565b7f4552433732313a20746f6b656e20616c7265616479206d696e74656400000000600082015250565b6000612dbd601c83611e48565b9150612dc882612d87565b602082019050919050565b60006020820190508181036000830152612dec81612db0565b905091905056fea2646970667358221220c57e3890e61cb011b2d50fa41f8ff204c0edb650f862e3ee6a6a20b014e092df64736f6c63430008130033",
  "immutableReferences": {},
  "source": "pragma solidity ^0.8.0;\n\nimport \"@openzeppelin/contracts/token/ERC721/ERC721.sol\";\nimport \"@openzeppelin/contracts/access/Ownable.sol\";\n\ncontract MyNFT is ERC721, Ownable {\n    uint256 public tokenCounter;\n    mapping(uint256 => bool) public tokenStaked;\n    \n    constructor() ERC721(\"NFTyuda\", \"NFTyuda\") {\n        tokenCounter = 0;\n    }\n\n    function mintNFT() external onlyOwner returns (uint256) {\n        uint256 tokenId = tokenCounter;\n        _safeMint(msg.sender, tokenId);\n        tokenCounter++;\n        return tokenId;\n    }\n    \n    function stakeToken(uint256 _tokenId) external {\n        require(_exists(_tokenId), \"Token does not exist\");\n        require(ownerOf(_tokenId) == msg.sender, \"You are not the owner of the token\");\n        require(!tokenStaked[_tokenId], \"Token is already staked\");\n\n        // Perform the staking logic here\n\n        tokenStaked[_tokenId] = true;\n    }\n\n    function unstakeToken(uint256 _tokenId) external {\n        require(_exists(_tokenId), \"Token does not exist\");\n        require(ownerOf(_tokenId) == msg.sender, \"You are not the owner of the token\");\n        require(tokenStaked[_tokenId], \"Token is not staked\");\n\n        // Perform the unstaking logic here\n\n        tokenStaked[_tokenId] = false;\n    }\n}\n",
  "sourcePath": "/Users/yuda/Documents/TESTKERJA/nft/contracts/nft_minting.sol",
  "compiler": {
    "name": "solc",
    "version": "0.8.19+commit.7dd6d404.Emscripten.clang"
  },
  "schemaVersion": "3.4.13",
  "updatedAt": "2023-06-19T07:08:21.336Z",
  "devdoc": {
    "events": {
      "Approval(address,address,uint256)": {
        "details": "Emitted when `owner` enables `approved` to manage the `tokenId` token."
      },
      "ApprovalForAll(address,address,bool)": {
        "details": "Emitted when `owner` enables or disables (`approved`) `operator` to manage all of its assets."
      },
      "Transfer(address,address,uint256)": {
        "details": "Emitted when `tokenId` token is transferred from `from` to `to`."
      }
    },
    "kind": "dev",
    "methods": {
      "approve(address,uint256)": {
        "details": "See {IERC721-approve}."
      },
      "balanceOf(address)": {
        "details": "See {IERC721-balanceOf}."
      },
      "getApproved(uint256)": {
        "details": "See {IERC721-getApproved}."
      },
      "isApprovedForAll(address,address)": {
        "details": "See {IERC721-isApprovedForAll}."
      },
      "name()": {
        "details": "See {IERC721Metadata-name}."
      },
      "owner()": {
        "details": "Returns the address of the current owner."
      },
      "ownerOf(uint256)": {
        "details": "See {IERC721-ownerOf}."
      },
      "renounceOwnership()": {
        "details": "Leaves the contract without owner. It will not be possible to call `onlyOwner` functions. Can only be called by the current owner. NOTE: Renouncing ownership will leave the contract without an owner, thereby disabling any functionality that is only available to the owner."
      },
      "safeTransferFrom(address,address,uint256)": {
        "details": "See {IERC721-safeTransferFrom}."
      },
      "safeTransferFrom(address,address,uint256,bytes)": {
        "details": "See {IERC721-safeTransferFrom}."
      },
      "setApprovalForAll(address,bool)": {
        "details": "See {IERC721-setApprovalForAll}."
      },
      "supportsInterface(bytes4)": {
        "details": "See {IERC165-supportsInterface}."
      },
      "symbol()": {
        "details": "See {IERC721Metadata-symbol}."
      },
      "tokenURI(uint256)": {
        "details": "See {IERC721Metadata-tokenURI}."
      },
      "transferFrom(address,address,uint256)": {
        "details": "See {IERC721-transferFrom}."
      },
      "transferOwnership(address)": {
        "details": "Transfers ownership of the contract to a new account (`newOwner`). Can only be called by the current owner."
      }
    },
    "version": 1
  },
  "userdoc": {
    "kind": "user",
    "methods": {},
    "version": 1
  }
}